:100000000C942A000C9447000C9447000C94470071
:100010000C9447000C9447000C9447000C94470044
:100020000C9447000C9447000C9447000C94470034
:100030000C9447000C9447000C9447000C94470024
:100040000C9447000C9447000C9447000C94470014
:100050000C94470011241FBECFE5D8E0DEBFCDBF12
:1000600010E0A8E6B0E001C01D92A936B107E1F7A3
:1000700010E0A0E6B0E0ECE1FFE202C005900D92D6
:10008000A836B107D9F70E94C30C0C948C170C94B6
:100090000000EF92FF920F931F937B018C0120E0F1
:1000A00030E040E05FE40E94490388238CF0C801FF
:1000B000B70120E030E040E05FE40E94C1010E940F
:1000C000A9039B01AC01205030404040504806C07D
:1000D000C801B7010E94A9039B01AC01B901CA0183
:1000E0001F910F91FF90EF900895A0E0B0E0EBE733
:1000F000F0E00C944317DC012B01FA019C91923043
:1001000008F439C1EB018881823008F433C194309E
:1001100069F4843009F02FC111969C91119789815F
:10012000981709F428C1A0E6B0E025C1843009F48D
:1001300021C18230A9F4923009F01DC19A01AD01AC
:1001400088E0EA010990AE01E90109929E0181501F
:10015000C1F7E201898111969C918923818308C1AD
:10016000923009F407C112962D903C901397EB0141
:100170008A819B811496AD90BD90CD90DC901797AD
:10018000EC80FD800E811F819101281B390BB90184
:1001900037FF04C066277727621B730B6032710537
:1001A0000CF061C0121613066CF537014801062EDB
:1001B00004C096948794779467940A94D2F721E0C8
:1001C00030E040E050E004C0220F331F441F551FB1
:1001D0006A95D2F721503040404050402E213F21B7
:1001E00040235123211531054105510521F021E01E
:1001F00030E040E050E079018A01E628F72808293C
:1002000019293CC0232BD1F1260E371E350146019A
:10021000062E04C096948794779467940A94D2F734
:1002200021E030E040E050E004C0220F331F441FC3
:10023000551F6A95D2F721503040404050402A2146
:100240003B214C215D21211531054105510521F04E
:1002500021E030E040E050E059016A01A628B728CB
:10026000C828D9280BC0821593052CF01C01AA249C
:10027000BB24650103C0EE24FF24870111969C91E5
:10028000D20111968C91981709F445C0992339F041
:10029000A80197012A193B094C095D0906C0A6016E
:1002A00095012E193F09400B510B57FD08C01182D3
:1002B0003382228224833583468357831DC081E0A5
:1002C00081833382228288279927DC01821B930B4A
:1002D000A40BB50B84839583A683B7830DC0220F2F
:1002E000331F441F551F24833583468357838281E0
:1002F000938101979383828324813581468157813D
:10030000DA01C9010197A109B1098F5F9F4FAF4F72
:10031000BF4328F30BC0918333822282EA0CFB1C7B
:100320000C1D1D1DE482F5820683178383E0808304
:10033000248135814681578157FF1AC0C901AA27F8
:1003400097FDA095BA2F81709070A070B0705695EF
:10035000479537952795822B932BA42BB52B848318
:100360009583A683B7838281938101969383828349
:10037000DF0101C0D201CD01CDB7DEB7E2E10C94BF
:100380005F17A0E2B0E0E7ECF1E00C944F1769834F
:100390007A838B839C832D833E834F835887E9E048
:1003A000EE2EF12CEC0EFD1ECE010196B7010E943F
:1003B000D2048E010F5E1F4FCE010596B8010E9438
:1003C000D2048A8991E089278A8BC701B801AE01DE
:1003D000475E5F4F0E9475000E94FD03A096E6E015
:1003E0000C946B17A0E2B0E0E8EFF1E00C944F172B
:1003F00069837A838B839C832D833E834F835887C5
:10040000F9E0EF2EF12CEC0EFD1ECE010196B701A6
:100410000E94D2048E010F5E1F4FCE010596B801D7
:100420000E94D204C701B801AE01475E5F4F0E942F
:1004300075000E94FD03A096E6E00C946B17A0E205
:10044000B0E0E5E2F2E00C94431769837A838B8392
:100450009C832D833E834F835887CE010196BE0136
:10046000675F7F4F0E94D204CE010596BE016F5E8A
:100470007F4F0E94D2049985923088F0898982301A
:10048000C8F0943019F4823051F404C0843029F457
:10049000923081F480E690E0C6C0923049F420E0CA
:1004A0009A858A89981321E02A87CE010996BBC0D4
:1004B000823049F420E09A858A89981321E02A8BBA
:1004C000CE014196B0C02D843E844F8458886D88FB
:1004D0007E888F88988CEE24FF248701AA24BB2471
:1004E000650140E050E060E070E0E0E0F0E0C10174
:1004F00081709070892BE9F0E60CF71C081D191D1E
:100500009A01AB012A0D3B1D4C1D5D1D80E090E062
:10051000A0E0B0E0E614F7040805190520F481E036
:1005200090E0A0E0B0E0BA01A901480F591F6A1F8E
:100530007B1FAA0CBB1CCC1CDD1C97FE08C081E0F5
:1005400090E0A0E0B0E0A82AB92ACA2ADB2A3196B6
:10055000E032F10549F0660C771C881C991C569412
:10056000479437942794C3CFFA85EA892B893C892D
:100570008B859C85280F391F2E5F3F4F17C0CA01FE
:1005800081709070892B61F016950795F794E79428
:1005900080E090E0A0E0B0E8E82AF92A0A2B1B2BC3
:1005A00076956795579547952F5F3F4F77FDE7CF36
:1005B0000CC0440F551F661F771F17FD4160EE0CDE
:1005C000FF1C001F111F21503040403090E05907A0
:1005D00090E0690790E4790760F32B8F3C8FDB0193
:1005E000CA018F779070A070B07080349105A1051A
:1005F000B10561F447FD0AC0E114F10401051105DC
:1006000029F0405C5F4F6F4F7F4F40781A8EFE1786
:1006100011F081E08A8F4D8F5E8F6F8F78A383E01A
:10062000898FCE0149960E94FD03A096E2E10C94C9
:100630005F17A8E1B0E0EFE1F3E00C944F17698396
:100640007A838B839C832D833E834F83588789E0F5
:10065000E82EF12CEC0EFD1ECE010196B7010E9492
:10066000D2048E010F5E1F4FCE010596B8010E9485
:10067000D2048985823040F08989823028F0C70110
:10068000B8010E944A0501C08FEF6896E6E00C941D
:100690006B17A8E1B0E0EFE4F3E00C944F17698327
:1006A0007A838B839C832D833E834F83588789E095
:1006B000E82EF12CEC0EFD1ECE010196B7010E9432
:1006C000D2048E010F5E1F4FCE010596B8010E9425
:1006D000D2048985823040F08989823028F0C701B0
:1006E000B8010E944A0501C08FEF6896E6E00C94BD
:1006F0006B17A8E1B0E0EFE7F3E00C944F176983C4
:100700007A838B839C832D833E834F83588789E034
:10071000E82EF12CEC0EFD1ECE010196B7010E94D1
:10072000D2048E010F5E1F4FCE010596B8010E94C4
:10073000D2048985823040F08989823028F0C7014F
:10074000B8010E944A0501C081E06896E6E00C9479
:100750006B17ACE0B0E0EFEAF3E00C945317698359
:100760007A838B839C83CE010196BE016B5F7F4FA2
:100770000E94D2048D81823061F1823050F1843048
:1007800021F48E81882351F12EC02F81388537FDC9
:1007900020C06E812F3131051CF06623F9F023C093
:1007A0008EE190E0821B930B29853A854B855C8511
:1007B00004C056954795379527958A95D2F76623B5
:1007C000B1F050954095309521953F4F4F4F5F4F79
:1007D0000EC020E030E040E050E009C02FEF3FEFD6
:1007E0004FEF5FE704C020E030E040E050E8B9019F
:1007F000CA012C96E2E00C946F17DF92EF92FF9201
:100800000F931F93FC01E480F58006811781D1804E
:100810008081823048F480E090E0A0E1B0E0E82AF6
:10082000F92A0A2B1B2BA5C0843009F49FC0823003
:1008300021F4EE24FF24870105C0E114F104010531
:10084000110519F4E0E0F0E096C0628173819FEF3A
:10085000623879070CF05BC022E83FEF261B370BAC
:100860002A3131052CF020E030E040E050E02AC091
:10087000B801A701022E04C0769567955795479554
:100880000A94D2F781E090E0A0E0B0E004C0880FC5
:10089000991FAA1FBB1F2A95D2F70197A109B10979
:1008A0008E219F21A023B1230097A105B10521F03E
:1008B00081E090E0A0E0B0E09A01AB01282B392B59
:1008C0004A2B5B2BDA01C9018F779070A070B07052
:1008D00080349105A105B10539F427FF09C0205CDA
:1008E0003F4F4F4F5F4F04C0215C3F4F4F4F5F4F13
:1008F000E0E0F0E02030A0E03A07A0E04A07A0E402
:100900005A0710F0E1E0F0E079018A0127C0603871
:10091000710564F5FB01E158FF4FD801C7018F77DE
:100920009070A070B07080349105A105B10539F4C4
:10093000E7FE0DC080E490E0A0E0B0E004C08FE3EB
:1009400090E0A0E0B0E0E80EF91E0A1F1B1F17FFA1
:1009500005C016950795F794E794319687E01695AC
:100960000795F794E7948A95D1F705C0EE24FF2404
:100970008701EFEFF0E06E2F679566276795902F60
:100980009F77D794DD24D7948E2F8695492F462BB9
:10099000582F5D29B701CA011F910F91FF90EF9069
:1009A000DF900895FC01DB01408151812281622F9B
:1009B0006F7770E0221F2227221F9381892F880FD3
:1009C000822B282F30E0991F9927991F11969C930D
:1009D000119721153105A9F54115510561057105DD
:1009E00011F482E037C082E89FEF13969C938E93B8
:1009F00012979A01AB0167E0220F331F441F551F66
:100A00006A95D1F783E08C930DC0220F331F441FEA
:100A1000551F12968D919C911397019713969C9355
:100A20008E931297203080E0380780E0480780E4FA
:100A3000580758F314962D933D934D935C93179755
:100A400008952F3F310579F4411551056105710570
:100A500019F484E08C93089564FF03C081E08C93C3
:100A600012C01C9210C02F57304013963C932E9307
:100A7000129783E08C9387E0440F551F661F771F02
:100A80008A95D1F7706414964D935D936D937C9322
:100A9000179708951F93DC01FB019C91923008F495
:100AA00047C08081823008F443C0943051F41196DD
:100AB0001C91843099F58181682F70E0611B710968
:100AC0003FC0843021F0923031F48230B9F181811D
:100AD000882389F12DC011961C9111978230F1F075
:100AE00081811817D9F412962D913C911397828128
:100AF00093818217930794F028173907BCF0149656
:100B00008D919D910D90BC91A02D248135814681C0
:100B10005781281739074A075B0718F4112341F05A
:100B20000AC082179307A407B50740F4112319F0F0
:100B300061E070E005C06FEF7FEF02C060E070E041
:100B4000CB011F910895DF93CF93CDB7DEB7A7E216
:100B5000B0E0E7E2F0E0808180648C93A7E2B0E04F
:100B6000E7E2F0E080818F778C93A7E2B0E0E7E2E4
:100B7000F0E0808180628C93A6E2B0E0E6E2F0E0F3
:100B80008081887F8C93A6E2B0E0E6E2F0E080818D
:100B900087608C93A6E2B0E0E6E2F0E080818068B6
:100BA0008C93CF91DF910895DF93CF93CDB7DEB7CC
:100BB000A7E2B0E0E7E2F0E0808180648C93A7E2F6
:100BC000B0E0E7E2F0E080818F778C93A7E2B0E0BD
:100BD000E7E2F0E0808180628C93A6E2B0E0E6E29A
:100BE000F0E08081887F8C93A6E2B0E0E6E2F0E05E
:100BF000808187608C93A6E2B0E0E6E2F0E080813D
:100C000080688C93A6E2B0E0E6E2F0E08081886044
:100C10008C93CF91DF910895DF93CF930F92CDB74F
:100C2000DEB78983A7E2B0E0E7E2F0E08081807E72
:100C30008C93A7E2B0E0E7E2F0E090818981892B14
:100C40008C93A6E2B0E0E6E2F0E0808180648C93D1
:100C5000E6E2F0E0808182958F70882F90E08170CD
:100C600090700097A9F30F90CF91DF910895DF93D3
:100C7000CF930F92CDB7DEB78983A7E2B0E0E7E26A
:100C8000F0E08081807E8C93A7E2B0E0E7E2F0E0C4
:100C900090818981892B8C93A6E2B0E0E6E2F0E0B6
:100CA000808180648C930F90CF91DF910895DF93C2
:100CB000CF93CDB7DEB7E4E2F0E080819181CF91B0
:100CC000DF910895DF93CF9300D000D000D0CDB74F
:100CD000DEB78A836B834C8381E089838A81883085
:100CE00008F0E8C08B81282F30E03E832D838D8172
:100CF0009E818130910509F448C02D813E812230CA
:100D000031052CF48D819E81009771F0D1C02D8129
:100D10003E812230310509F469C08D819E81833086
:100D2000910509F494C0C4C08C818130A1F4AAE378
:100D3000B0E0EAE3F0E08081482F8A81282F30E09C
:100D400081E090E0022E02C0880F991F0A94E2F71A
:100D5000842B8C93B0C08C818823A9F4AAE3B0E0E3
:100D6000EAE3F0E08081482F8A81282F30E081E09B
:100D700090E0022E02C0880F991F0A94E2F7809536
:100D800084238C9398C0198296C08C818130A1F401
:100D9000A7E3B0E0E7E3F0E08081482F8A81282FC5
:100DA00030E081E090E0022E02C0880F991F0A9483
:100DB000E2F7842B8C937FC08C818823A9F4A7E36E
:100DC000B0E0E7E3F0E08081482F8A81282F30E00F
:100DD00081E090E0022E02C0880F991F0A94E2F78A
:100DE000809584238C9367C0198265C08C81813083
:100DF000A1F4A4E3B0E0E4E3F0E08081482F8A812D
:100E0000282F30E081E090E0022E02C0880F991F69
:100E10000A94E2F7842B8C934EC08C818823A9F42A
:100E2000A4E3B0E0E4E3F0E08081482F8A81282F3A
:100E300030E081E090E0022E02C0880F991F0A94F2
:100E4000E2F7809584238C9336C0198234C08C815C
:100E50008130A1F4A1E3B0E0E1E3F0E08081482F2C
:100E60008A81282F30E081E090E0022E02C0880FB6
:100E7000991F0A94E2F7842B8C931DC08C818823E0
:100E8000A9F4A1E3B0E0E1E3F0E08081482F8A819A
:100E9000282F30E081E090E0022E02C0880F991FD9
:100EA0000A94E2F7809584238C9305C0198203C0CD
:100EB000198201C01982898126960FB6F894DEBF87
:100EC0000FBECDBFCF91DF910895DF93CF9300D0B8
:100ED00000D000D0CDB7DEB78A836B834C8381E02E
:100EE00089838A81883008F0E8C08B81282F30E020
:100EF0003E832D838D819E818130910509F448C008
:100F00002D813E81223031052CF48D819E81009708
:100F100071F0D1C02D813E812230310509F469C0C4
:100F20008D819E818330910509F494C0C4C08C8169
:100F30008130A1F4ABE3B0E0EBE3F0E08081482F37
:100F40008A81282F30E081E090E0022E02C0880FD5
:100F5000991F0A94E2F7842B8C93B0C08C8188236C
:100F6000A9F4ABE3B0E0EBE3F0E08081482F8A81A5
:100F7000282F30E081E090E0022E02C0880F991FF8
:100F80000A94E2F7809584238C9398C0198296C0C6
:100F90008C818130A1F4A8E3B0E0E8E3F0E0808147
:100FA000482F8A81282F30E081E090E0022E02C095
:100FB000880F991F0A94E2F7842B8C937FC08C8151
:100FC0008823A9F4A8E3B0E0E8E3F0E08081482FAB
:100FD0008A81282F30E081E090E0022E02C0880F45
:100FE000991F0A94E2F7809584238C9367C0198235
:100FF00065C08C818130A1F4A5E3B0E0E5E3F0E0C9
:101000008081482F8A81282F30E081E090E0022EF5
:1010100002C0880F991F0A94E2F7842B8C934EC06C
:101020008C818823A9F4A5E3B0E0E5E3F0E08081BA
:10103000482F8A81282F30E081E090E0022E02C004
:10104000880F991F0A94E2F7809584238C9336C009
:10105000198234C08C818130A1F4A2E3B0E0E2E3D4
:10106000F0E08081482F8A81282F30E081E090E0F5
:10107000022E02C0880F991F0A94E2F7842B8C93EA
:101080001DC08C818823A9F4A2E3B0E0E2E3F0E084
:101090008081482F8A81282F30E081E090E0022E65
:1010A00002C0880F991F0A94E2F7809584238C93DD
:1010B00005C0198203C0198201C019828981269650
:1010C0000FB6F894DEBF0FBECDBFCF91DF9108956C
:1010D000DF93CF9300D000D00F92CDB7DEB78A83D5
:1010E0006B8381E089838A81282F30E03D832C83C4
:1010F0008C819D818130910531F12C813D8122309F
:1011000031052CF48C819D81009761F04FC02C81BA
:101110003D812230310541F18C819D8183309105E3
:10112000A1F144C08B818F3F29F4EAE3F0E08FEF17
:1011300080833DC08B81882321F4EAE3F0E01082B4
:1011400036C0198234C08B818F3F29F4E7E3F0E089
:101150008FEF80832CC08B81882321F4E7E3F0E0BC
:10116000108225C0198223C08B818F3F29F4E4E3CC
:10117000F0E08FEF80831BC08B81882321F4E4E3B0
:10118000F0E0108214C0198212C08B818F3F29F4C5
:10119000E1E3F0E08FEF80830AC08B81882321F4A4
:1011A000E1E3F0E0108203C0198201C01982898155
:1011B0000F900F900F900F900F90CF91DF910895A7
:1011C000DF93CF9300D000D00F92CDB7DEB78A83E4
:1011D0006B8381E089838A81282F30E03D832C83D3
:1011E0008C819D8181309105D1F02C813D8122300F
:1011F00031052CF48C819D81009761F01FC02C81FA
:101200003D812230310581F08C819D8183309105B3
:1012100081F014C0EBE3F0E08B81808310C0E8E341
:10122000F0E08B8180830BC0E5E3F0E08B8180836D
:1012300006C0E2E3F0E08B81808301C019828981DE
:101240000F900F900F900F900F90CF91DF91089516
:10125000DF93CF93CDB7DEB727970FB6F894DEBFF5
:101260000FBECDBF8A836B835D834C8381E089830E
:101270008A81883008F073C08B81282F30E03F834B
:101280002E834E815F814130510559F18E819F81BE
:101290008230910534F42E813F812115310569F0AA
:1012A0005CC04E815F814230510579F18E819F8112
:1012B0008330910509F43DC050C0E9E3F0E080813E
:1012C000282F30E08A81882F90E0A90102C055952F
:1012D00047958A95E2F7CA018170EC81FD81808390
:1012E0003FC0E6E3F0E08081282F30E08A81882F3C
:1012F00090E0A90102C0559547958A95E2F7CA0189
:101300008170EC81FD8180832BC0E3E3F0E080817C
:10131000282F30E08A81882F90E0A90102C05595DE
:1013200047958A95E2F7CA018170EC81FD8180833F
:1013300017C0E0E3F0E08081282F30E08A81882F19
:1013400090E0A90102C0559547958A95E2F7CA0138
:101350008170EC81FD81808303C0198201C01982F4
:10136000898127960FB6F894DEBF0FBECDBFCF910F
:10137000DF910895DF93CF9300D000D0CDB7DEB7D3
:1013800089836A838981282F30E03C832B838B817A
:101390009C818130910541F12B813C8122303105C6
:1013A0002CF48B819C81009761F056C02B813C818D
:1013B0002230310561F18B819C8183309105D1F11F
:1013C0004BC0ABE3B0E0EBE3F0E080818F708C9337
:1013D0008A81807F8A83ABE3B0E0EBE3F0E0908129
:1013E0008A81892B8C9338C0A8E3B0E0E8E3F0E071
:1013F00080818F708C938A81807F8A83A8E3B0E09C
:10140000E8E3F0E090818A81892B8C9325C0A5E3E5
:10141000B0E0E5E3F0E080818F708C938A81807F7B
:101420008A83A5E3B0E0E5E3F0E090818A81892B2F
:101430008C9312C0A2E3B0E0E2E3F0E080818F7011
:101440008C938A81807F8A83A2E3B0E0E2E3F0E0BC
:1014500090818A81892B8C930F900F900F900F9021
:10146000CF91DF910895DF93CF93CDB7DEB7629729
:101470000FB6F894DEBF0FBECDBF888B698B4A8B49
:10148000898980658F870E94B00B8F850E94D50B5C
:101490008A890E943B0C88890E943B0C0E94AE0CFA
:1014A00080E090E0A0E2B1E48B879C87AD87BE87A7
:1014B0006B857C858D859E8520E030E04AE755E48C
:1014C0000E941F02DC01CB018F839887A987BA870E
:1014D0006F81788589859A8520E030E040E85FE378
:1014E0000E94790388232CF481E090E09E838D8311
:1014F0003FC06F81788589859A8520E03FEF4FE76F
:1015000057E40E94190318164CF56B857C858D8570
:101510009E8520E030E040E251E40E941F02DC01A1
:10152000CB01BC01CD010E944900DC01CB019E83AF
:101530008D830FC080E991E09C838B838B819C819C
:101540000197F1F79C838B838D819E8101979E8308
:101550008D838D819E81009769F714C06F81788596
:1015600089859A850E944900DC01CB019E838D8389
:101570008D819E819A83898389819A810197F1F770
:101580009A83898362960FB6F894DEBF0FBECDBFF3
:10159000CF91DF910895DF93CF9300D000D0CDB7E6
:1015A000DEB78B836C838B81806589830E94B00B4F
:1015B00089810E94D50B8C810E943B0C0E94890C72
:1015C00089810E94080CCE0102960E945F0C0E9445
:1015D000AE0C8A810F900F900F900F90CF91DF91FA
:1015E0000895DF93CF9300D000D000D0CDB7DEB701
:1015F0008C837E836D838C81882F90E09C012150A9
:1016000030408D819E81820F931F9A8389838C81C4
:1016100081508B8318C08B81282F30E08D819E8173
:10162000DC01A20FB31F8B81882F90E09C01215019
:1016300030408D819E81FC01E20FF31F80818C93ED
:101640008B8181508B838B81882329F7E981FA81F3
:101650008081ED81FE81808326960FB6F894DEBFEF
:101660000FBECDBFCF91DF910895DF93CF9300D010
:1016700000D000D0CDB7DEB78C837E836D831B8214
:101680000FC08B81282F30E08D819E81FC01E20FFD
:10169000F31F90818A81890F8A838B818F5F8B836F
:1016A0009B818C81981768F38A819C81692F0E94A5
:1016B00037178983898126960FB6F894DEBF0FBE4F
:1016C000CDBFCF91DF910895DF93CF930F92CDB728
:1016D000DEB78983A6E5B0E0E6E5F0E080818064CE
:1016E0008C93A1E2B0E0E1E2F0E080818D7F8C9309
:1016F000A1E2B0E0E1E2F0E080818E7F8C93E0E255
:10170000F0E08CE08083E2E2F0E08981880F808362
:10171000A6E5B0E0E6E5F0E0808184608C930F9070
:10172000CF91DF910895DF93CF930F92CDB7DEB7BE
:101730008983A6E5B0E0E6E5F0E0808180648C93E3
:10174000E2E2F0E08981880F8083A6E5B0E0E6E57B
:10175000F0E0808184608C930F90CF91DF910895A9
:10176000DF93CF930F92CDB7DEB781E08983A6E5F3
:10177000B0E0E6E5F0E0808180628C93A6E5B0E021
:10178000E6E5F0E0808180688C93E6E5F0E080811A
:101790008823DCF7E1E2F0E08081883009F01982EB
:1017A00089810F90CF91DF910895DF93CF9300D07F
:1017B000CDB7DEB78A8381E08983E3E2F0E08A81F6
:1017C000880F8083A3E2B0E0E3E2F0E080818E7FC7
:1017D0008C93A6E5B0E0E6E5F0E080818F7D8C9308
:1017E000A6E5B0E0E6E5F0E0808180688C93E6E570
:1017F000F0E080818823DCF7E1E2F0E0808188314D
:1018000009F0198289810F900F90CF91DF9108958F
:10181000DF93CF9300D0CDB7DEB78A8381E0898391
:10182000E3E2F0E08A81880F8083A3E2B0E0E3E2A4
:10183000F0E0808181608C93A6E5B0E0E6E5F0E021
:1018400080818F7D8C93A6E5B0E0E6E5F0E08081B5
:1018500080688C93E6E5F0E080818823DCF7E1E2A4
:10186000F0E08081803409F0198289810F900F9017
:10187000CF91DF910895DF93CF9300D0CDB7DEB73E
:101880008A8381E08983E3E2F0E08A818083A6E5B0
:10189000B0E0E6E5F0E0808180688C93E6E5F0E07A
:1018A00080818823DCF7E1E2F0E08081883209F072
:1018B000198289810F900F90CF91DF910895DF9366
:1018C000CF9300D00F92CDB7DEB79B838A8381E0A0
:1018D0008983A6E5B0E0E6E5F0E0808180688C933E
:1018E000E6E5F0E080818823DCF7E1E2F0E080814A
:1018F000803539F4E3E2F0E08081EA81FB81808386
:1019000001C0198289810F900F900F90CF91DF91C4
:101910000895DF93CF930F92CDB7DEB781E089832F
:10192000A6E5B0E0E6E5F0E0808180628C93A6E574
:10193000B0E0E6E5F0E0808180688C93E6E5F0E0D9
:1019400080818823DCF7E1E2F0E08081803109F0DA
:10195000198289810F90CF91DF910895DF93CF9302
:10196000CDB7DEB7A6E5B0E0E6E5F0E080818061C6
:101970008C93A6E5B0E0E6E5F0E0808180688C938A
:10198000CF91DF9108950F931F93DF93CF93CDB73E
:10199000DEB7CE5CD0400FB6F894DEBF0FBECDBF31
:1019A000FE01E154FF4F1082FE01E254FF4F10820E
:1019B000CE0180549F4F2AE0FC01DF01422F1D928F
:1019C0004A95E9F7FE01E054FF4F8CE38083FE0166
:1019D000E454FF4FCE0180549F4F91838083FE01DA
:1019E000E554FF4F1082FE01E654FF4F1082FE01C6
:1019F000E754FF4F1082FE01E854FF4F1082FE01B2
:101A0000E954FF4F108280E061E040E00E946206EE
:101A100086E063E040E00E94620682E063E040E02E
:101A20000E94620687E062E041E00E94620684E074
:101A300060E041E00E94620685E060E041E00E94D3
:101A4000620686E060E041E00E94620687E060E0B6
:101A500041E00E94620681E061E041E00E9462068E
:101A600082E061E041E00E94620681E061E041E0E5
:101A70000E94650782E061E041E00E9465070E94E4
:101A8000A30580E061E00E94BA09FE01ED54FF4F1A
:101A900080E090E0AAE7B4E480839183A283B383DB
:101AA0008E0101551F4FFE01ED54FF4F6081718182
:101AB0008281938120E030E04AE755E40E941F02D2
:101AC000DC01CB01F80180839183A283B383FE0103
:101AD000E155FF4F608171818281938120E030E088
:101AE00040E85FE30E947903882344F4FE01E35554
:101AF000FF4F81E090E09183808364C0FE01E15557
:101B0000FF4F608171818281938120E03FEF4FE739
:101B100057E40E94190318160CF043C0FE01ED545F
:101B2000FF4F608171818281938120E030E040E24B
:101B300051E40E941F02DC01CB018E0103551F4FAF
:101B4000BC01CD010E944900DC01CB01F801918369
:101B500080831FC0FE01E555FF4F80E991E091832E
:101B60008083FE01E555FF4F808191810197F1F758
:101B7000FE01E555FF4F91838083DE01A355BF4FE2
:101B8000FE01E355FF4F80819181019711969C934F
:101B90008E93FE01E355FF4F808191810097D1F62E
:101BA00027C08E0103551F4FFE01E155FF4F608195
:101BB0007181828193810E944900DC01CB01F8018F
:101BC00091838083DE01A755BF4FFE01E355FF4F90
:101BD000808191818D939C93FE01E755FF4F808119
:101BE00091810197F1F7FE01E755FF4F91838083C3
:101BF00081E00E940C060E945706FE01E754FF4F49
:101C00008083FE01E754FF4FDE01A954BF4F90814E
:101C10008C91981709F411C1FE01E754FF4F8081A0
:101C2000282F30E088E893E1AC01249FC001259F74
:101C3000900D349F900D1124C353DF4F99838883F7
:101C4000CD5CD040C353DF4F88819981CD5CD040BB
:101C5000992374F4C353DF4FA881B981CD5CD04080
:101C6000A150BC4FC353DF4FB983A883CD5CD04094
:101C7000C353DF4F88819981CD5CD040892F990F64
:101C8000990B85958595FE01E854FF4F8083DE0111
:101C9000A954BF4FFE01E754FF4F80818C939E01F2
:101CA00020543F4F8AE0B9010E94350B833229F45A
:101CB000FE01E254FF4F81E080839E0120543F4F9C
:101CC0008AE0B9010E94350B8B3421F4FE01E25405
:101CD000FF4F1082FE01EB55FF4F80E090E0A8EC33
:101CE000B2E480839183A283B3838E010F551F4F8B
:101CF000FE01EB55FF4F608171818281938120E06D
:101D000030E04AE755E40E941F02DC01CB01F801F4
:101D100080839183A283B383FE01EF55FF4F6081DF
:101D200071818281938120E030E040E85FE30E948E
:101D30007903882344F4FE01E156FF4F81E090E0EF
:101D40009183808364C0FE01EF55FF4F60817181F4
:101D50008281938120E03FEF4FE757E40E9419030F
:101D600018160CF043C0FE01EB55FF4F60817181E6
:101D70008281938120E030E040E251E40E941F0222
:101D8000DC01CB018E0101561F4FBC01CD010E9429
:101D90004900DC01CB01F801918380831FC0FE0163
:101DA000E356FF4F80E991E091838083FE01E35683
:101DB000FF4F808191810197F1F7FE01E356FF4FBC
:101DC00091838083DE01A156BF4FFE01E156FF4F94
:101DD00080819181019711969C938E93FE01E1562B
:101DE000FF4F808191810097D1F627C08E01015667
:101DF0001F4FFE01EF55FF4F6081718182819381FA
:101E00000E944900DC01CB01F80191838083DE014F
:101E1000A556BF4FFE01E156FF4F808191818D9302
:101E20009C93FE01E556FF4F808191810197F1F768
:101E3000FE01E556FF4F918380839E0126533F4F5D
:101E400086E063E0A9010E942809813009F0D5C429
:101E5000FE01E854FF4F8081833208F4CEC4FE01B6
:101E6000E854FF4F80818C3408F0C7C4FE01E95666
:101E7000FF4F80E090E0A8E4B2E480839183A283E6
:101E8000B3838E010D561F4FFE01E956FF4F60814F
:101E900071818281938120E030E04AE755E40E941D
:101EA0001F02DC01CB01F80180839183A283B383FD
:101EB000FE01ED56FF4F608171818281938120E0A8
:101EC00030E040E85FE30E947903882344F4FE0198
:101ED000EF56FF4F81E090E09183808364C0FE0164
:101EE000ED56FF4F608171818281938120E03FEF49
:101EF0004FE757E40E94190318160CF043C0FE0187
:101F0000E956FF4F608171818281938120E030E04A
:101F100040E251E40E941F02DC01CB018E010F560A
:101F20001F4FBC01CD010E944900DC01CB01F8012B
:101F3000918380831FC0FE01E157FF4F80E991E04C
:101F400091838083FE01E157FF4F8081918101974A
:101F5000F1F7FE01E157FF4F91838083DE01AF5619
:101F6000BF4FFE01EF56FF4F80819181019711967F
:101F70009C938E93FE01EF56FF4F808191810097D5
:101F8000D1F627C08E010F561F4FFE01ED56FF4FB1
:101F900060817181828193810E944900DC01CB01C3
:101FA000F80191838083DE01A357BF4FFE01EF56F6
:101FB000FF4F808191818D939C93FE01E357FF4FEA
:101FC000808191810197F1F7FE01E357FF4F9183E3
:101FD00080839E0126533F4F86E063E0A9010E9463
:101FE0002809813009F009C4FE01E054FF4F9081B7
:101FF000FE01E854FF4F8081891708F4FEC3FE01FB
:10200000E854FF4F80818C3408F0F7C3FE01E1549F
:10201000FF4F1082FE01E554FF4F8081882309F0B5
:102020004CC2ABE3B0E0FE01E854FF4F80818295E3
:10203000807F8C9381E061E040E00E94650782E050
:1020400061E040E00E946507FE01E757FF4F80E036
:1020500090E0AAE7B4E480839183A283B3838E01E6
:102060000B571F4FFE01E757FF4F6081718182813F
:10207000938120E030E04AE755E40E941F02DC0132
:10208000CB01F80180839183A283B383FE01EB57D8
:10209000FF4F608171818281938120E030E040E8D0
:1020A0005FE30E947903882344F4FE01ED57FF4F5C
:1020B00081E090E09183808364C0FE01EB57FF4F85
:1020C000608171818281938120E03FEF4FE757E487
:1020D0000E94190318160CF043C0FE01E757FF4F8A
:1020E000608171818281938120E030E040E251E49F
:1020F0000E941F02DC01CB018E010D571F4FBC0156
:10210000CD010E944900DC01CB01F801918380835D
:102110001FC0FE01EF57FF4F80E991E0918380835C
:10212000FE01EF57FF4F808191810197F1F7FE018A
:10213000EF57FF4F91838083DE01AD57BF4FFE0104
:10214000ED57FF4F80819181019711969C938E935B
:10215000FE01ED57FF4F808191810097D1F627C096
:102160008E010D571F4FFE01EB57FF4F60817181AC
:10217000828193810E944900DC01CB01F8019183A7
:102180008083DE01A158BF4FFE01ED57FF4F8081D4
:1021900091818D939C93FE01E158FF4F8081918145
:1021A0000197F1F7FE01E158FF4F9183808381E0B1
:1021B00061E041E00E94650782E061E041E00E9449
:1021C0006507FE01E558FF4F80E090E0AAE7B4E420
:1021D00080839183A283B3838E0109581F4FFE0130
:1021E000E558FF4F608171818281938120E030E06A
:1021F0004AE755E40E941F02DC01CB01F80180830D
:102200009183A283B383FE01E958FF4F60817181FE
:102210008281938120E030E040E85FE30E9479030F
:10222000882344F4FE01EB58FF4F81E090E0918356
:10223000808364C0FE01E958FF4F60817181828113
:10224000938120E03FEF4FE757E40E9419031816EF
:102250000CF043C0FE01E558FF4F6081718182811F
:10226000938120E030E040E251E40E941F02DC0153
:10227000CB018E010B581F4FBC01CD010E944900BC
:10228000DC01CB01F801918380831FC0FE01ED5872
:10229000FF4F80E991E091838083FE01ED58FF4F6D
:1022A000808191810197F1F7FE01ED58FF4F9183F5
:1022B0008083DE01AB58BF4FFE01EB58FF4F80819A
:1022C0009181019711969C938E93FE01EB58FF4FDD
:1022D000808191810097D1F6DCC08E010B581F4F91
:1022E000FE01E958FF4F60817181828193810E94D4
:1022F0004900DC01CB01F80191838083DE01AF58F6
:10230000BF4FFE01EB58FF4F8081918111969C9346
:102310008E93FE01EF58FF4F808191810197F1F775
:10232000FE01EF58FF4F91838083B3C0FE01E35954
:10233000FF4F80E090E4ACE9B5E480839183A28311
:10234000B3838E0107591F4FFE01E359FF4F608190
:1023500071818281938120E030E04AE755E40E9458
:102360001F02DC01CB01F80180839183A283B38338
:10237000FE01E759FF4F608171818281938120E0E6
:1023800030E040E85FE30E947903882344F4FE01D3
:10239000E959FF4F81E090E09183808364C0FE01A2
:1023A000E759FF4F608171818281938120E03FEF87
:1023B0004FE757E40E94190318160CF043C0FE01C2
:1023C000E359FF4F608171818281938120E030E089
:1023D00040E251E40E941F02DC01CB018E01095949
:1023E0001F4FBC01CD010E944900DC01CB01F80167
:1023F000918380831FC0FE01EB59FF4F80E991E07C
:1024000091838083FE01EB59FF4F80819181019779
:10241000F1F7FE01EB59FF4F91838083DE01A9594B
:10242000BF4FFE01E959FF4F8081918101971196BD
:102430009C938E93FE01E959FF4F80819181009713
:10244000D1F627C08E0109591F4FFE01E759FF4FF2
:1024500060817181828193810E944900DC01CB01FE
:10246000F80191838083DE01AD59BF4FFE01E95928
:10247000FF4F808191818D939C93FE01ED59FF4F19
:10248000808191810197F1F7FE01ED59FF4F918312
:1024900080839E0126533F4F86E063E0A9010E949E
:1024A0002809882309F442CFDE01A554BF4FFE015D
:1024B000E554FF4F80818F5F8C93FE01E154FF4F05
:1024C0008081882309F099C1FE01E554FF4F808186
:1024D000882309F492C187E062E041E00E94650729
:1024E000FE01E15AFF4F80E090E0AAE7B4E4808368
:1024F0009183A283B3838E01055A1F4FFE01E15AD7
:10250000FF4F608171818281938120E030E04AE752
:1025100055E40E941F02DC01CB01F8018083918306
:10252000A283B383FE01E55AFF4F608171818281EE
:10253000938120E030E040E85FE30E947903882344
:1025400044F4FE01E75AFF4F81E090E091838083DD
:1025500064C0FE01E55AFF4F6081718182819381E1
:1025600020E03FEF4FE757E40E94190318160CF0E4
:1025700043C0FE01E15AFF4F6081718182819381E6
:1025800020E030E040E251E40E941F02DC01CB0178
:102590008E01075A1F4FBC01CD010E944900DC018A
:1025A000CB01F801918380831FC0FE01E95AFF4FE0
:1025B00080E991E091838083FE01E95AFF4F808199
:1025C00091810197F1F7FE01E95AFF4F91838083D2
:1025D000DE01A75ABF4FFE01E75AFF4F808191816C
:1025E000019711969C938E93FE01E75AFF4F8081CD
:1025F00091810097D1F627C08E01075A1F4FFE0127
:10260000E55AFF4F60817181828193810E94490068
:10261000DC01CB01F80191838083DE01AB5ABF4F0F
:10262000FE01E75AFF4F808191818D939C93FE01BB
:10263000EB5AFF4F808191810197F1F7FE01EB5A30
:10264000FF4F9183808387E062E040E00E9465074E
:10265000FE01EF5AFF4F80E090E0AAE7B4E48083E8
:102660009183A283B3838E01035B1F4FFE01EF5A58
:10267000FF4F608171818281938120E030E04AE7E1
:1026800055E40E941F02DC01CB01F8018083918395
:10269000A283B383FE01E35BFF4F6081718182817E
:1026A000938120E030E040E85FE30E9479038823D3
:1026B00044F4FE01E55BFF4F81E090E0918380836D
:1026C00064C0FE01E35BFF4F608171818281938171
:1026D00020E03FEF4FE757E40E94190318160CF073
:1026E00043C0FE01EF5AFF4F608171818281938167
:1026F00020E030E040E251E40E941F02DC01CB0107
:102700008E01055B1F4FBC01CD010E944900DC0119
:10271000CB01F801918380831FC0FE01E75BFF4F6F
:1027200080E991E091838083FE01E75BFF4F808128
:1027300091810197F1F7FE01E75BFF4F9183808361
:10274000DE01A55BBF4FFE01E55BFF4F80819181FC
:10275000019711969C938E93FE01E55BFF4F80815C
:1027600091810097D1F627C08E01055B1F4FFE01B6
:10277000E35BFF4F60817181828193810E944900F8
:10278000DC01CB01F80191838083DE01A95BBF4F9F
:10279000FE01E55BFF4F808191818D939C93FE014B
:1027A000E95BFF4F808191810197F1F7FE01E95BC1
:1027B000FF4F91838083DE01A854BF4FFE01E85490
:1027C000FF4F80818B5F8C939E0120543F4FFE0111
:1027D000E454FF4F0190F081E02D8081882F90E03C
:1027E000A901480F591FFE01E854FF4F8081282F8F
:1027F00030E0CA01B9010E947A179E0125533F4F6C
:1028000082E063E0A9010E942809813009F0FFC13C
:10281000FE01E054FF4F9081FE01E854FF4F80819C
:10282000891708F4F4C1FE01E854FF4F8081833218
:1028300008F4EDC1FE01ED5BFF4F80E090E0A8E4FD
:10284000B2E480839183A283B3838E01015C1F4F26
:10285000FE01ED5BFF4F608171818281938120E0F9
:1028600030E04AE755E40E941F02DC01CB01F80189
:1028700080839183A283B383FE01FF96608171817F
:102880008281938120E030E040E85FE30E94790399
:1028900088232CF481E090E09EAF8DAF46C0FE010E
:1028A000FF96608171818281938120E03FEF4FE745
:1028B00057E40E941903181664F5FE01ED5BFF4F03
:1028C000608171818281938120E030E040E251E4B7
:1028D0000E941F02DC01CB01BC01CD010E94490016
:1028E000DC01CB019EAF8DAF0FC080E991E09CAFC2
:1028F0008BAF8BAD9CAD0197F1F79CAF8BAF8DADDE
:102900009EAD01979EAF8DAF8DAD9EAD009769F7DF
:1029100016C0FE01FF9660817181828193810E94C1
:102920004900DC01CB019EAF8DAF8DAD9EAD9AAF5E
:1029300089AF89AD9AAD0197F1F79AAF89AF9E0142
:1029400025533F4F82E063E0A9010E9428098130AE
:1029500009F05DC1FE01E054FF4F9081FE01E85493
:10296000FF4F8081891708F452C1FE01E854FF4FE0
:102970008081833208F44BC1FE01E154FF4F81E0B6
:102980008083FE01E554FF4F8081882309F098C0C1
:10299000ABE3B0E0FE01E854FF4F80818295807F79
:1029A0008C9381E061E040E00E94650782E061E095
:1029B00040E00E94650780E090E0AAE7B4E48DABB8
:1029C0009EABAFABB8AF6DA97EA98FA998AD20E043
:1029D00030E04AE755E40E941F02DC01CB0189ABDD
:1029E0009AABABABBCAB69A97AA98BA99CA920E037
:1029F00030E040E85FE30E94790388232CF481E013
:102A000090E098AB8FA73FC069A97AA98BA99CA930
:102A100020E03FEF4FE757E40E94190318164CF5EA
:102A20006DA97EA98FA998AD20E030E040E251E485
:102A30000E941F02DC01CB01BC01CD010E944900B4
:102A4000DC01CB0198AB8FA70FC080E991E09EA776
:102A50008DA78DA59EA50197F1F79EA78DA78FA5A0
:102A600098A9019798AB8FA78FA598A9009769F7A8
:102A700014C069A97AA98BA99CA90E944900DC010C
:102A8000CB0198AB8FA78FA598A99CA78BA78BA5E7
:102A90009CA50197F1F79CA78BA781E061E041E03D
:102AA0000E94650782E061E041E00E946507DE0167
:102AB000A554BF4FFE01E554FF4F80818F5F8C937B
:102AC000FE01E154FF4F8081813009F0A0C0FE017A
:102AD000E554FF4F8081882309F499C087E062E0C4
:102AE00041E00E94650780E090E0AAE7B4E48FA38C
:102AF00098A7A9A7BAA76FA178A589A59AA520E04C
:102B000030E04AE755E40E941F02DC01CB018BA3B1
:102B10009CA3ADA3BEA36BA17CA18DA19EA120E02F
:102B200030E040E85FE30E94790388232CF481E0E1
:102B300090E09AA389A33FC06BA17CA18DA19EA127
:102B400020E03FEF4FE757E40E94190318164CF5B9
:102B50006FA178A589A59AA520E030E040E251E474
:102B60000E941F02DC01CB01BC01CD010E94490083
:102B7000DC01CB019AA389A30FC080E991E098A35F
:102B80008F8F8F8D98A10197F1F798A38F8F89A1CF
:102B90009AA101979AA389A389A19AA1009769F79D
:102BA00014C06BA17CA18DA19EA10E944900DC01F3
:102BB000CB019AA389A389A19AA19E8F8D8F8D8D18
:102BC0009E8D0197F1F79E8F8D8FDE01A854BF4F28
:102BD000FE01E854FF4F808185508C939E01205464
:102BE0003F4FFE01E454FF4F0190F081E02D8081C2
:102BF000882F90E0A901480F591FFE01E854FF4FAC
:102C00008081282F30E0CA01B9010E947A179E0105
:102C100024533F4F80E061E0A9010E9428098130E0
:102C200011F00C94F80D80E090E0A8E4B2E4898FF4
:102C30009A8FAB8FBC8F698D7A8D8B8D9C8D20E0A8
:102C400030E04AE755E40E941F02DC01CB018D8B86
:102C50009E8BAF8BB88F6D897E898F89988D20E090
:102C600030E040E85FE30E94790388232CF481E0A0
:102C700090E09C8B8B8B3FC06D897E898F89988D6E
:102C800020E03FEF4FE757E40E94190318164CF578
:102C9000698D7A8D8B8D9C8D20E030E040E251E48F
:102CA0000E941F02DC01CB01BC01CD010E94490042
:102CB000DC01CB019C8B8B8B0FC080E991E09A8B60
:102CC000898B89899A890197F1F79A8B898B8B89EE
:102CD0009C8901979C8B8B8B8B899C89009769F7CA
:102CE00014C06D897E898F89988D0E944900DC010E
:102CF000CB019C8B8B8B8B899C89988B8F878F8545
:102D000098890197F1F7988B8F879E0124533F4F45
:102D100080E061E0A9010E942809813009F097C094
:102D2000FE01E254FF4F81E0808309C0DE01A6541A
:102D3000BF4FFE01E654FF4F80818F5F8C93FE01F1
:102D4000E054FF4F9081FE01E654FF4F80818917C8
:102D500068F3ABE3B0E0FE01E654FF4F808182955B
:102D6000807F8C9380E090E0AAE7B4E48B879C8717
:102D7000AD87BE876B857C858D859E8520E030E0A4
:102D80004AE755E40E941F02DC01CB018F8398873C
:102D9000A987BA876F81788589859A8520E030E098
:102DA00040E85FE30E94790388232CF481E090E0FF
:102DB0009E838D8340C06F81788589859A8520E0C8
:102DC0003FEF4FE757E40E941903181654F56B853F
:102DD0007C858D859E8520E030E040E251E40E94B4
:102DE0001F02DC01CB01BC01CD010E944900DC01C6
:102DF000CB019E838D830FC080E991E09C838B8300
:102E00008B819C810197F1F79C838B838D819E81BF
:102E100001979E838D838D819E81009769F70C9425
:102E2000F80D6F81788589859A850E944900DC01BB
:102E3000CB019E838D838D819E819A838983898135
:102E40009A810197F1F79A8389830C94F80DFE011A
:102E5000E254FF4F108281E061E040E00E9465078C
:102E600082E061E040E00E9465070C94F80D991B38
:102E700079E004C0991F961708F0961B881F7A9571
:102E8000C9F7809508952F923F924F925F926F926B
:102E90007F928F929F92AF92BF92CF92DF92EF92EA
:102EA000FF920F931F93CF93DF93CDB7DEB7CA1B6B
:102EB000DB0B0FB6F894DEBF0FBECDBF09942A8896
:102EC000398848885F846E847D848C849B84AA843E
:102ED000B984C884DF80EE80FD800C811B81AA81CB
:102EE000B981CE0FD11D0FB6F894DEBF0FBECDBF96
:102EF000ED0108950E947F17272F0C948017262F2D
:102F0000E199FECF9FBB8EBB2DBB0FB6F894E29A22
:0C2F1000E19A0FBE01960895F894FFCFDF
:082F1C000000000000000000AD
:00000001FF
